:100000000C942A000C9434000C9434000C943400AA
:100010000C9434000C9434000C9434000C94340090
:100020000C9434000C9434000C9434000C94340080
:100030000C9434000C9434000C9434000C94340070
:100040000C9434000C9434000C9434000C94340060
:100050000C94340011241FBECFE5D8E0DEBFCDBF25
:100060000E9436000C944C000C9400008AB381600E
:100070008ABB8BB381608BBB84B38E7F84BB85B31B
:10008000816085BB989904C08BB381608BBBFACF2C
:0C0090008BB38E7F8BBBF6CFF894FFCFB4
:00000001FF
