:100000000C942A000C9447000C9447000C94470071
:100010000C9447000C9447000C9447000C94470044
:100020000C9447000C9447000C9447000C94470034
:100030000C9447000C9447000C9447000C94470024
:100040000C9447000C9447000C9447000C94470014
:100050000C94470011241FBECFE5D8E0DEBFCDBF12
:1000600010E0A0E6B0E0EAE0F3E002C005900D92F7
:10007000A038B107D9F720E0A0E8B0E001C01D9298
:10008000A038B207E1F70E9449000C9483010C9458
:100090000000CF93DF9300D01F92CDB7DEB70E9450
:1000A0006E0119821A821B82AE014F5F5F4F63E0BF
:1000B00083E00E944A01AE014E5F5F4F64E083E03F
:1000C0000E944A01AE014D5F5F4F65E083E00E94F0
:1000D0004A01898181110EC041E060E00E94130154
:1000E0002FEF80E792E0215080409040E1F700C080
:1000F0000000DACF8A8181110FC041E060E081E029
:100100000E9413012FEF80E792E021508040904041
:10011000E1F700C00000C8CF8B8181110FC041E022
:1001200060E082E00E9413012FEF80E792E021500F
:1001300080409040E1F700C00000B6CF40E060E0B2
:1001400080E00E94130140E060E081E00E94130122
:1001500040E060E082E00E941301A6CF282F30E04B
:10016000F901EE0FFF1F2E0F3F1F31952195310929
:10017000F901F996843008F04EC0683008F04DC09F
:10018000443008F04CC0411110C081E090E002C042
:10019000880F991F6A95E2F79181982B918380953A
:1001A00092818923828380E00895413079F481E04F
:1001B00090E002C0880F991F6A95E2F79181982B11
:1001C00091839281892B828380E00895423089F463
:1001D00081E090E002C0880F991F6A95E2F7982F9E
:1001E00090954181942391839281892B828380E031
:1001F00008954330B1F481E090E002C0880F991F68
:100200006A95E2F780959181982391839281892361
:10021000828380E0089582E0089583E0089585E078
:10022000089580E00895282F30E0F901EE0FFF1FB8
:100230002E0F3F1F319521953109F901F996843030
:1002400008F5683008F5423008F541110DC081E02D
:1002500090E002C0880F991F6A95E2F7809592811D
:100260008923828380E00895413091F481E090E019
:1002700002C0880F991F6A95E2F79281892B8283C9
:1002800080E0089582E0089583E0089587E008956E
:1002900080E00895282F30E0F901EE0FFF1F2E0FA8
:1002A0003F1FEE27FF27E21BF30B843088F46830F2
:1002B00088F44115510581F081AD90E002C095951B
:1002C00087956A95E2F78170FA01808380E008954E
:1002D00082E0089583E0089588E00895CF93C0E018
:1002E0000EC06C2F6770EC2FF0E0E05AFF4F40819A
:1002F0008C2F8695869586950E94AE00CF5FC03282
:0A03000080F3CF910895F894FFCF29
:10030A0000000000000000000100000000000000E2
:10031A0000000000000000000000000202020000CD
:00000001FF
