:100000000C942A000C9434000C9434000C943400AA
:100010000C9434000C9434000C9434000C94340090
:100020000C9434000C9434000C9434000C94340080
:100030000C9434000C9434000C9434000C94340070
:100040000C9434000C9434000C9434000C94340060
:100050000C94340011241FBECFE5D8E0DEBFCDBF25
:100060000E9436000C94E4000C94000060E083E0F1
:100070000E943F006FEF83E00E94CA00FBCF8430F4
:1000800008F07AC0643008F079C0813019F130F09E
:100090008230E1F1833009F454C072C0611105C0AF
:1000A0008FEF8ABB1BBA80E00895613029F48FEF8F
:1000B0008ABB8BBB80E00895623029F41ABA8FEFB7
:1000C0008BBB80E00895633009F05CC01ABA1BBA9C
:1000D00080E00895611105C08FEF87BB18BA80E0FA
:1000E0000895613029F48FEF87BB88BB80E00895C5
:1000F000623029F417BA8FEF88BB80E0089563302F
:1001000009F042C017BA18BA80E00895611105C01D
:100110008FEF84BB15BA80E00895613029F48FEF2A
:1001200084BB85BB80E00895623029F414BA8FEF58
:1001300085BB80E00895633049F514BA15BA80E0B4
:100140000895611105C08FEF81BB12BA80E0089558
:10015000613029F48FEF81BB82BB80E0089562306B
:1001600029F411BA8FEF82BB80E00895633081F4E7
:1001700011BA12BA80E0089582E0089584E00895EB
:1001800080E0089580E0089580E0089580E008957B
:1001900080E008958430A0F4813049F028F0823066
:1001A00049F0833051F00EC06BBB80E0089568BB0E
:1001B00080E0089565BB80E0089562BB80E008950B
:0C01C00082E0089580E00895F894FFCFDD
:00000001FF
