:100000000C942A000C9434000C9434000C943400AA
:100010000C9434000C9434000C9434000C94340090
:100020000C9434000C9434000C9434000C94340080
:100030000C9434000C9434000C9434000C94340070
:100040000C9434000C9434000C9434000C94340060
:100050000C94340011241FBECFE5D8E0DEBFCDBF25
:100060000E9436000C9475000C9400008AB38160E5
:100070008ABB8BB38E7F8BBB8AB382608ABB8BB308
:100080008D7F8BBB8AB384608ABB8BB38B7F8BBB2A
:100090008AB388608ABB8BB3877F8BBB84B38E7F28
:1000A00084BB85B3816085BB81E090E002C080E0C5
:1000B00090E02FEF30E742E0215030404040E1F740
:1000C00000C000009899F5CF2FEF30E742E02150B3
:1000D00030404040E1F700C00000989BFECF8BBB52
:0E00E00001968031910529F7E2CFF894FFCF09
:00000001FF
