:100000000C942A000C9434000C9434000C943400AA
:100010000C9434000C9434000C9434000C94340090
:100020000C9434000C9434000C9434000C94340080
:100030000C9434000C9434000C9434000C94340070
:100040000C9434000C9434000C9434000C94340060
:100050000C94340011241FBECFE5D8E0DEBFCDBF25
:100060000E9436000C94D7020C9400000F931F934B
:10007000CF93DF931F92CDB7DEB760E081E00E949F
:10008000E80181114AC042E060E083E00E949500EF
:10009000811143C081E08983AE014F5F5F4F60E013
:1000A00083E00E949502811138C089818111F4CFCB
:1000B0002FEF80E792E0215080409040E1F700C0B0
:1000C0000000AE014F5F5F4F60E083E00E94950249
:1000D000811123C089818111DFCF12C0602F81E09F
:1000E0000E947302811119C02FEF80E792E0215026
:1000F00080409040E1F700C000000F5F1F4F02C03A
:1001000000E010E00F3F110549F340F360E081E0AB
:100110000E947302882309F4BFCF81E090E00F9022
:10012000DF91CF911F910F910895843008F040C165
:10013000683008F03FC1443008F03EC1813009F416
:1001400054C038F0823009F49CC0833009F4E5C013
:1001500035C1411111C02AB381E090E002C0880F7F
:10016000991F6A95E2F7922F982B9ABB9BB38095C3
:1001700089238BBB80E00895413081F42AB381E06C
:1001800090E002C0880F991F6A95E2F7922F982B92
:100190009ABB9BB3892B8BBB80E00895423089F4D6
:1001A0002AB381E090E002C0880F991F6A95E2F7B8
:1001B000982F909592239ABB9BB3892B8BBB80E0A1
:1001C0000895433009F0FCC02AB381E090E002C0FA
:1001D000880F991F6A95E2F78095922F98239ABB12
:1001E0009BB389238BBB80E00895411111C027B3D5
:1001F00081E090E002C0880F991F6A95E2F7922F84
:10020000982B97BB98B38095892388BB80E008958D
:10021000413081F427B381E090E002C0880F991F3C
:100220006A95E2F7922F982B97BB98B3892B88BBDE
:1002300080E00895423089F427B381E090E002C065
:10024000880F991F6A95E2F7982F9095922397BB94
:1002500098B3892B88BB80E00895433009F0B2C081
:1002600027B381E090E002C0880F991F6A95E2F7FA
:100270008095922F982397BB98B3892388BB80E001
:100280000895411111C024B381E090E002C0880FAD
:10029000991F6A95E2F7922F982B94BB95B380959E
:1002A000892385BB80E00895413081F424B381E047
:1002B00090E002C0880F991F6A95E2F7922F982B61
:1002C00094BB95B3892B85BB80E00895423089F4B7
:1002D00024B381E090E002C0880F991F6A95E2F78D
:1002E000982F9095922394BB95B3892B85BB80E082
:1002F0000895433009F068C024B381E090E002C063
:10030000880F991F6A95E2F78095922F982394BBE6
:1003100095B3892385BB80E00895411111C021B3B5
:1003200081E090E002C0880F991F6A95E2F7922F52
:10033000982B91BB92B38095892382BB80E008956E
:10034000413081F421B381E090E002C0880F991F11
:100350006A95E2F7922F982B91BB92B3892B82BBBF
:1003600080E00895423089F421B381E090E002C03A
:10037000880F991F6A95E2F7982F9095922391BB69
:1003800092B3892B82BB80E008954330F9F421B306
:1003900081E090E002C0880F991F6A95E2F780958E
:1003A000922F982391BB92B3892382BB80E008955A
:1003B00082E0089583E0089585E0089580E008953F
:1003C00080E0089580E0089580E0089580E0089539
:1003D000843008F07AC0643008F079C0813019F1B7
:1003E00030F08230E1F1833009F454C072C0611101
:1003F00005C08FEF8ABB1BBA80E00895613029F4F5
:100400008FEF8ABB8BBB80E00895623029F41ABA63
:100410008FEF8BBB80E00895633009F05CC01ABA9F
:100420001BBA80E00895611105C08FEF87BB18BA31
:1004300080E00895613029F48FEF87BB88BB80E0AE
:100440000895623029F417BA8FEF88BB80E00895D1
:10045000633009F042C017BA18BA80E008956111FC
:1004600005C08FEF84BB15BA80E00895613029F490
:100470008FEF84BB85BB80E00895623029F414BA05
:100480008FEF85BB80E00895633049F514BA15BA43
:1004900080E00895611105C08FEF81BB12BA80E042
:1004A0000895613029F48FEF81BB82BB80E008950D
:1004B000623029F411BA8FEF82BB80E00895633077
:1004C00081F411BA12BA80E0089582E0089584E0C0
:1004D000089580E0089580E0089580E0089580E028
:1004E000089580E008958430E0F4813059F028F0D8
:1004F000823069F0833081F016C08AB368236BBB09
:1005000080E0089587B3682368BB80E0089584B3D2
:10051000682365BB80E0089581B3682362BB80E0F7
:10052000089582E0089580E008958430D0F5683021
:10053000D0F5813091F028F08230D9F0833029F164
:1005400034C089B390E002C0959587956A95E2F72B
:100550008170FA01808380E0089586B390E002C044
:10056000959587956A95E2F78170FA01808380E01E
:10057000089583B390E002C0959587956A95E2F758
:100580008170FA01808380E0089580B390E002C01A
:10059000959587956A95E2F78170FA01808380E0EE
:1005A000089582E0089583E0089580E00895F89426
:0205B000FFCF7B
:00000001FF
