:100000000C942A000C9434000C9434000C943400AA
:100010000C9434000C9434000C9434000C94340090
:100020000C9434000C9434000C9434000C94340080
:100030000C9434000C9434000C9434000C94340070
:100040000C9434000C9434000C9434000C94340060
:100050000C94340011241FBECFE5D8E0DEBFCDBF25
:100060000E9436000C949D000C9400008AB38160BD
:100070008ABB8BB38E7F8BBB8AB382608ABB8BB308
:100080008D7F8BBB8AB384608ABB8BB38B7F8BBB2A
:1000900084B38E7F84BB85B3816085BB9899FECF86
:1000A0002FEF30E742E0215030404040E1F700C000
:1000B00000009899F3CF8FEF90E722E081509040B5
:1000C0002040E1F700C0000080E090E02FC00097E2
:1000D00051F42BB321602BBB2BB32D7F2BBB2BB348
:1000E0002B7F2BBB19C08130910551F42BB32E7F90
:1000F0002BBB2BB322602BBB2BB32B7F2BBB0CC09A
:100100008230910549F42BB32E7F2BBB2BB32D7F6F
:100110002BBB2BB324602BBB3FEF49E628E13150CA
:1001200040402040E1F700C0000001968330910577
:0E01300074F28BB38B7F8BBBB1CFF894FFCFF3
:00000001FF
