:100000000C942A000C943F000C943F000C943F0089
:100010000C943F000C943F000C943F000C943F0064
:100020000C943F000C943F000C943F000C943F0054
:100030000C943F000C943F000C943F000C943F0044
:100040000C943F000C943F000C943F000C943F0034
:100050000C943F0011241FBECFE5D8E0DEBFCDBF1A
:1000600010E0A0E6B0E0E6ECFCE002C005900D92E6
:10007000AA3DB107D9F70E940D060C9461060C94B5
:100080000000CF93DF9300D000D000D0CDB7DEB713
:1000900061E070E080E090E06BD461E070E080E0CF
:1000A00090E066D41C821B821E821D821982ACC025
:1000B0001A82A3C08981282F30E08A81482F50E01E
:1000C000822F932F880F991F880F991F880F991FD0
:1000D000820F931F840F951F880F991F8A589F4F77
:1000E000E82FF92F8081918161E070E041D489810E
:1000F000282F30E08A81482F50E0822F932F880FDD
:10010000991F880F991F880F991F820F931F840FC3
:10011000951F880F991F8A589F4FE82FF92F8081CC
:100120009181929582958F7089279F7089278F7012
:1001300099279C838B838981282F30E08A81482FDF
:1001400050E0822F932F880F991F880F991F880FD7
:10015000991F820F931F840F951F880F991F8A582C
:100160009F4FE82FF92F808191818F7099279E836F
:100170008D838981282F30E0822F932F880F991F3C
:10018000880F991F880F991F820F931F880F991F3F
:100190008A579F4FE82FF92F80819181892B51F445
:1001A0002D813E818B819C8140E050E0622F732F36
:1001B0001ED120C08981282F30E0822F932F880FF5
:1001C000991F880F991F880F991F820F931F880FFF
:1001D000991F8A579F4FE82FF92F808191810197AE
:1001E00049F42D813E818B819C8141E050E0622F5A
:1001F000732FFDD08A818F5F8A838A81883008F4CB
:1002000059CF89818F5F89838981823008F450CFEB
:10021000000026960FB6F894DEBF0FBECDBFDF916B
:10022000CF910895CF93DF93CDB7DEB72A970FB65E
:10023000F894DEBF0FBECDBF89876A8781E090E06A
:100240009C838B838985823028F083E090E09C83B7
:100250008B8396C08A858A3028F084E090E09C8366
:100260008B838EC01C821B821E821D8218861F8279
:1002700019821A8281C08985282F30E08A81482F0F
:1002800050E0822F932F880F991F880F991F880F96
:10029000991F820F931F840F951F880F991F8A58EB
:1002A0009F4FE82FF92F80819181929582958F70D1
:1002B00089279F7089278F7099279E838D838985D1
:1002C000282F30E08A81482F50E0822F932F880F0B
:1002D000991F880F991F880F991F820F931F840FF2
:1002E000951F880F991F8A589F4FE82FF92F8081FB
:1002F00091818F70992798878F838A85882F90E0C6
:10030000880F991F805A9F4FE82FF92F8081918184
:100310002A81222F30E002C0969587952A95E2F730
:10032000817089838985282F30E0822F932F880F51
:10033000991F880F991F880F991F820F931F880F8D
:10034000991F8A579F4FE82FF92F8081918101973C
:1003500031F481E09981992309F080E089838981D2
:10036000482F50E02F8138858D819E81622F732F19
:100370003ED08A818F5F8A838A81883008F47BCF60
:1003800000002A960FB6F894DEBF0FBECDBFDF91F6
:10039000CF910895CF93DF9300D01F92CDB7DEB7F2
:1003A0009B838A8319828A819B812AE030E0622FB5
:1003B000732F73D4282F898191E0980F9983622F2E
:1003C00031DF8A819B812AE030E0622F732F65D470
:1003D000862F972F9B838A838A819B81892B19F78C
:1003E00000000F900F900F90DF91CF910895CF9361
:1003F000DF93CDB7DEB72A970FB6F894DEBF0FBEF6
:10040000CDBF9E838D8378876F835A8749872D81DF
:100410003E81822F932F880F991F820F931F9195F2
:1004200081959109C9969C838B8381E090E09A83A2
:1004300089838D819E81049728F082E090E09A83E1
:10044000898348C08F819885089728F083E090E0E1
:100450009A8389833FC089859A85029728F085E031
:1004600090E09A83898336C01A82198289859A8599
:10047000892BB9F48B819C81E82FF92F8281282F59
:1004800081E090E00F8002C0880F991F0A94E2F784
:1004900080958223282F8B819C81E82FF92F22833E
:1004A00019C089859A850197A9F48B819C81E82FD1
:1004B000F92F8281282F81E090E00F8002C0880F01
:1004C000991F0A94E2F7822B282F8B819C81E82FB9
:1004D000F92F228389819A812A960FB6F894DEBF7C
:1004E0000FBECDBFDF91CF910895CF93DF93CDB7EE
:1004F000DEB727970FB6F894DEBF0FBECDBF9E8341
:100500008D836F832D813E81822F932F880F991FBA
:10051000820F931F919581959109C9969C838B8336
:1005200081E090E09A8389838D819E81049728F0F1
:1005300082E090E09A8389830FC01A8219828B81AE
:100540009C81E82FF92F91818F81292F28238B817E
:100550009C81E82FF92F228389819A8127960FB6F3
:10056000F894DEBF0FBECDBFDF91CF910895CF933A
:10057000DF93CDB7DEB72A970FB6F894DEBF0FBE74
:10058000CDBF9E838D8378876F835A8749872D815E
:100590003E81822F932F880F991F820F931F919571
:1005A00081959109C9969C838B8381E090E09A8321
:1005B00089838D819E81049728F082E090E09A8360
:1005C000898328C08F819885089728F083E090E080
:1005D0009A8389831FC089859A85892B29F486E0AF
:1005E00090E09A83898316C01A8219828B819C813C
:1005F000E82FF92F8081882F90E00F8002C0959519
:1006000087950A94E2F7282F217089859A85E82F2B
:10061000F92F208389819A812A960FB6F894DEBF3C
:100620000FBECDBFDF91CF910895CF93DF93CDB7AC
:10063000DEB728970FB6F894DEBF0FBECDBF9E83FE
:100640008D8378876F832D813E81822F932F880F32
:10065000991F820F931F919581959109C9969C834B
:100660008B8381E090E09A8389838D819E810497BA
:1006700028F082E090E09A83898315C08F81988565
:10068000892B29F486E090E09A8389830CC01A8232
:1006900019828B819C81E82FF92F20818F81988589
:1006A000E82FF92F208389819A8128960FB6F89434
:1006B000DEBF0FBECDBFDF91CF910895CF93DF9303
:1006C000CDB7DEB72A970FB6F894DEBF0FBECDBF09
:1006D0009E838D8378876F835A8749872D813E81DA
:1006E000822F932F880F991F820F931F91958195C9
:1006F0009109C9969C838B8381E090E09A838983DA
:100700008D819E81049728F083E090E09A8389830D
:10071000A2C08F819885089728F082E090E09A83A4
:10072000898399C089859A85049728F086E090E0AE
:100730009A83898390C01A82198289859A85892B28
:1007400061F58B819C81E82FF92F8181282F81E031
:1007500090E00F8002C0880F991F0A94E2F7822B65
:10076000282F8B819C81E82FF92F21838B819C81FD
:10077000E82FF92F8281282F81E090E00F8002C0BE
:10078000880F991F0A94E2F780958223282F8B8186
:100790009C81E82FF92F22835EC089859A85019775
:1007A00059F58B819C81E82FF92F8181282F81E0D9
:1007B00090E00F8002C0880F991F0A94E2F7822B05
:1007C000282F8B819C81E82FF92F21838B819C819D
:1007D000E82FF92F8281282F81E090E00F8002C05E
:1007E000880F991F0A94E2F7822B282F8B819C8116
:1007F000E82FF92F22832FC089859A85029759F512
:100800008B819C81E82FF92F8181282F81E090E056
:100810000F8002C0880F991F0A94E2F78095822307
:10082000282F8B819C81E82FF92F21838B819C813C
:10083000E82FF92F8281282F81E090E00F8002C0FD
:10084000880F991F0A94E2F7822B282F8B819C81B5
:10085000E82FF92F228389819A812A960FB6F8947E
:10086000DEBF0FBECDBFDF91CF910895CF93DF9351
:10087000CDB7DEB728970FB6F894DEBF0FBECDBF59
:100880009E838D8378876F832D813E81822F932F66
:10089000880F991F820F931F919581959109C99691
:1008A0009C838B8381E090E09A8389838D819E81F4
:1008B000049728F083E090E09A8389834EC08F816B
:1008C00098858230914028F087E090E09A83898370
:1008D00044C01A8219828F819885892B61F48B819B
:1008E0009C812FEFE82FF92F21838B819C81E82FAA
:1008F000F92F128232C08F8198858F3F910569F45C
:100900008B819C812FEFE82FF92F21838B819C8194
:100910002FEFE82FF92F228320C08F819885811532
:10092000914061F48B819C81E82FF92F11828B819A
:100930009C812FEFE82FF92F22830FC08F8198859C
:100940008130914051F48B819C81E82FF92F1182E5
:100950008B819C81E82FF92F128289819A812896B8
:100960000FB6F894DEBF0FBECDBFDF91CF910895D3
:10097000CF93DF93CDB7DEB72C970FB6F894DEBFD9
:100980000FBECDBF9A8789877C876B8789859A85BB
:10099000929582958F7089279F7089278F709927EC
:1009A0009C838B8389859A858F7099279E838D83FD
:1009B0002B813C81822F932F880F991F820F931FC9
:1009C000919581959109C99698878F8381E090E0F0
:1009D0009A8389838B819C81049728F083E090E03F
:1009E0009A83898348C08D819E81089728F082E090
:1009F00090E09A8389833FC08B859C85029728F07D
:100A000085E090E09A83898336C01A8219828B85AB
:100A10009C85009719F00197C1F02DC08F819885B2
:100A2000E82FF92F8181282F81E090E00D8002C00E
:100A3000880F991F0A94E2F780958223282F8F81CF
:100A40009885E82FF92F218316C08F819885E82F8C
:100A5000F92F8181282F81E090E00D8002C0880F5E
:100A6000991F0A94E2F7822B282F8F819885E82F0F
:100A7000F92F2183000089819A812C960FB6F89472
:100A8000DEBF0FBECDBFDF91CF910895CF93DF932F
:100A9000CDB7DEB72C970FB6F894DEBF0FBECDBF33
:100AA0009A8789877C876B8789859A8592958295B5
:100AB0008F7089279F7089278F7099279C838B83DC
:100AC00089859A858F7099279E838D832B813C81A0
:100AD000822F932F880F991F820F931F91958195D5
:100AE0009109C99698878F8381E090E09A838983E2
:100AF0008B819C81049728F083E090E09A8389831E
:100B000044C08D819E81089728F082E090E09A830E
:100B100089833BC08B859C85892B29F084E090E0FC
:100B20009A83898332C01A8219828B859C85892B8E
:100B300061F58F819885E82FF92F8181282F81E039
:100B400090E00D8002C0880F991F0A94E2F780950B
:100B50008223282F8F819885E82FF92F21838F8179
:100B60009885E82FF92F8281282F81E090E00D8071
:100B700002C0880F991F0A94E2F7822B282F8F81D9
:100B80009885E82FF92F2283000089819A812C967D
:100B90000FB6F894DEBF0FBECDBFDF91CF910895A1
:100BA000CF93DF9300D000D01F92CDB7DEB71B826A
:100BB0001A821D821C82198224C08981869586959D
:100BC0008695882F90E09B838A838981882F90E087
:100BD000877099279D838C838981882F90E0880F67
:100BE000991F86569F4FE82FF92F408151812C8104
:100BF0003D818A819B81622F732F60DD89818F5FA8
:100C0000898389818032C8F200000F900F900F9085
:100C10000F900F90DF91CF910895CF93DF931F92A4
:100C2000CDB7DEB70E94410060E070E080E390E065
:100C30000E94B80460E070E080E390E00E94460506
:100C40001982AE014F5F5F4F60E070E083E090E09B
:100C50000E94B70289818111F4CFAE014F5F5F4FCF
:100C600060E070E083E090E00E94B702898181112A
:100C7000E8CF00E010E0C8010E94CA012FEF82E532
:100C800097E0215080409040E1F700C000000F5FE6
:100C90001F4F0436110579F7D4CFAA1BBB1B51E1B6
:100CA00007C0AA1FBB1FA617B70710F0A61BB70BDC
:100CB000881F991F5A95A9F780959095BC01CD0181
:060CC0000895F894FFCF37
:100CC6003F0006005B004F0066006D007D000700D8
:100CD6007F006F0080000000010002000300040096
:100CE60005000600070001001000110012001300A5
:100CF6001400150016001700010000000100000096
:100D060000000000000000000000000000000000DD
:100D160000000000000000000000000000000000CD
:100D260000000000000000000000000000000000BD
:0A0D360002000200020000000000AD
:00000001FF
