:100000000C942A000C9434000C9434000C943400AA
:100010000C9434000C9434000C9434000C94340090
:100020000C9434000C9434000C9434000C94340080
:100030000C9434000C9434000C9434000C94340070
:100040000C9434000C9434000C9434000C94340060
:100050000C94340011241FBECFE5D8E0DEBFCDBF25
:100060000E9436000C944A000C9400008AB3816010
:100070008ABB8BB38E7F8BBB2FEF89E698E1215033
:1000800080409040E1F700C000009BB381E08927E9
:080090008BBBF2CFF894FFCF07
:00000001FF
